:0200000460009A
:100000004643464200000156000000000103030081
:1000100000000000000000000000000000000000E0
:1000200000000000000000000000000000000000D0
:1000300000000000000000000000000000000000C0
:1000400000000000010408000000000000000000A3
:100050000000200000000000000000000000000080
:100060000000000000000000000000000000000090
:100070000000000000000000000000000000000080
:10008000EB04180A063204260000000000000000FD
:10009000050404240000000000000000000000002F
:1000A0000000000000000000000000000000000050
:1000B0000604000000000000000000000000000036
:1000C0000000000000000000000000000000000030
:1000D00020041808000000000000000000000000DC
:1000E0000000000000000000000000000000000010
:1000F0000000000000000000000000000000000000
:10010000D8041808000000000000000000000000F3
:100110000204180804200000000000000000000095
:1001200000000000000000000000000000000000CF
:10013000600400000000000000000000000000005B
:1001400000000000000000000000000000000000AF
:10015000000000000000000000000000000000009F
:10016000000000000000000000000000000000008F
:10017000000000000000000000000000000000007F
:10018000000000000000000000000000000000006F
:10019000000000000000000000000000000000005F
:1001A000000000000000000000000000000000004F
:1001B000000000000000000000000000000000003F
:1001C000000100000010000001000000000000001D
:1001D000000001000000000000000000000000001E
:1001E000000000000000000000000000000000000F
:1001F00000000000000000000000000000000000FF
:10020000FFFFFFFFFFFFFFFFFFFFFFFFFFFFFFFFFE
:10021000FFFFFFFFFFFFFFFFFFFFFFFFFFFFFFFFEE
:10100000D1002043491600600000000000000000ED
:10101000201000600010006000300160000000003F
:1010200000000060003C010000000000FFFFFFFF27
:10103000FFFFFFFFFFFFFFFFFFFFFFFFFFFFFFFFC0
:10104000FFFFFFFFFFFFFFFFFFFFFFFFFFFFFFFFB0
:10105000FFFFFFFFFFFFFFFFFFFFFFFFFFFFFFFFA0
:10106000FFFFFFFFFFFFFFFFFFFFFFFFFFFFFFFF90
:10140000814205D051F8043B40F8043B8242F9D8B0
:10141000704700BF044A05494FF0000342F8043BFF
:101420009142FBD8704700BFC0220020E03100206D
:101430002DE98848BFF34F8F00BF00BF00BF00BF3A
:1014400000F0D4F9674B0822C3F8542100BF00BF55
:1014500000BF00BF00BF00BF00BF00BF00BF00BF94
:1014600000BF00BF00BF00BF00BF00BF5E4A5F49B2
:101470005F48FFF7C5FF5F4A5F496048FFF7C0FF5D
:101480005F4CFFF7C7FF4FF470004FF0E0210023DF
:101490005C4AC1F8880D44F823200133B02BFAD1FF
:1014A000594B8021594A03F8011B9342FBD14FF05D
:1014B000E0254C4E4FF08039DFF880B1DFF880A195
:1014C0004FF0FF31C5F8084D0027C6F80491C6F863
:1014D00000B1C6F8F490C6F8F0A0D5F8243DDFF8C6
:1014E000648143F4E0234A4AC5F8243DD8F81C300F
:1014F00023F07F0343F04003C8F81C30D8F82430B1
:1015000023F07F0343F04003C8F824309166D1668E
:101510001167516700F072F93E4B3F49A3633F4B9F
:10152000E36363236B610323AF612B613C4BC5F81D
:10153000203DD5F8FC3D43F08073C5F8FC3D394BA8
:101540001A6842F001021A605B680B6000F0DEF975
:10155000C6F804913448C6F800B1C6F8F490C6F84D
:10156000F0A000F069FBD8F86C10304B304A41F421
:101570004051C8F86C101F60C3F80871C3F81871A7
:10158000C3F82871C3F83871936BDB0708D442F6AF
:101590001563284951651365936B43F00103936309
:1015A000234A254C936843F00113936000F012FB2B
:1015B00000F04EFB00F0D8F900F01AF92368132B65
:1015C000FCD900F069FA2368B3F5967FFBD300F0ED
:1015D00013F900F00FF900F043FB00F03DFB30BFC2
:1015E000FDE700BF00800D4008EB0000781E0060A2
:1015F00000000000C02200208409016000000020DB
:10160000002000209167000000E400E0A0E400E07A
:1016100000C00A40AD7B000078310020B17B0000A3
:1016200000002020001000E00046C32300400840D6
:1016300000400D400000C0567C3100201B101820D7
:101640000C0D111300C00F40054B4FF42A01054A41
:1016500005485A641864054A99639546FFF7E8FE01
:1016600000C00A40AFAAAAAA070020000000072075
:1016700043690A4A03EB011010B4037A084C02EBE9
:101680000313D3E901321460C2681A6003690BB115
:1016900042691A605DF8044B704700BFA40A00203D
:1016A00061F801004369027E03EB021292F808C060
:1016B0008C451CD01A7AFF2A19D0914210B50446E5
:1016C00016D01A7EFF2A06D00121D3E90023126822
:1016D0001A4201D1217610BD064B0522204603EBAC
:1016E0000C135B681A60FFF7C3FF2176F3E77047BE
:1016F0000021EAE7A40A002043690A4A03EB01102B
:1017000010B490F82830084C02EB0313D3E90132EF
:101710001460C26A1A60036B0BB1426B1A605DF809
:10172000044B7047A40A002061F801004369427E1F
:1017300003EB021292F828C08C451ED093F82820A3
:10174000FF2A1AD0914210B5044617D093F83820DA
:10175000FF2A06D00121D3E9002312681A4201D1E1
:10176000617610BD064B0522204603EB0C135B6827
:101770001A60FFF7C1FF6176F3E770470021EAE7DF
:10178000A40A0020164942698B6B23F47C0343F4BE
:10179000802370B58B630446124DD2E900130A68AA
:1017A0001A4303690A60022200211A610E4A196174
:1017B0009A6401225A629D624FF43035DD624FF027
:1017C00001159E6C1E6519629D651A61017EFFF709
:1017D0004FFF617E2046BDE87040FFF78DBF00BF20
:1017E00000C00F40B80B05053B372819704700BFF4
:1017F000704700BF704700BF00BF704710B44FF084
:10180000E023002110243148C3F8941DC3F89C4DF7
:101810001124C3F8A00D2E48C3F89C4D1224C3F820
:10182000A00D2C48C3F89C4D2B4AC3F8A00D2B4C9F
:1018300042F015022A48C3F89C4DC3F8A00D294C6C
:101840002948C3F89C4DC3F8A00D284CC3F89C2D23
:101850002748284AC3F8A04DC3F89C0DC3F8A02D13
:1018600002F5A022244C0C322448C3F89C4DC3F846
:10187000A02D234AC3F89C0D224CC3F8A02D02F1E1
:101880004062C3F89C4D2048C3F8A02D0C32C3F829
:101890009C0DC3F8A02D00BF00BF00BF00BF00BF5C
:1018A0000122C3F8942DBFF34F8FBFF36F8FC3F89E
:1018B000501FBFF34F8FBFF36F8FD3F8142D5DF818
:1018C000044B42F44032C3F8142D70473F0000101F
:1018D0002500080709001000E03100201300200057
:1018E0002100020714000020250008130900001041
:1018F0001600202027000B1317000040180000607E
:101900002F000B07190000701A000080F0B4154A70
:1019100040274FF480314FF480564FF400554FF478
:10192000404443F24200136913F0020F0ED113F446
:10193000005F0FD013F4805F0ED0002BF3DA13F4A6
:10194000803F0BD15B060BD5F0BC704794615161B1
:101950009061E8E75561E6E75661E4E79161E2E707
:101960005761E0E700800D403F4A03203F49F3EE16
:10197000095AD2F880304FF0000C9FED3D6A23F0F9
:1019800001039FED3C5A30B4C2F88030C2F8900099
:10199000D1F8E010384DCBB2384C39482B6007EE07
:1019A000903A0B0DC1F30B21F8EEE77A06EE903A70
:1019B00007EE101A334BB8EEC77A2160F8EEE66AEC
:1019C000314937EEC66A37EEC55A76EEC76A77EE0A
:1019D000E57A26EE266AC3ED006A25EE265AD2F88D
:1019E000803067EEA64AC0ED007AC6EE275A274837
:1019F00085EE276AC4EEA76A75EE875AFCEEE55AB3
:101A000036EE076A15EE904ABCEEC66A43EA045306
:101A100076EE877AC2F8803016EE103AD2F890410E
:101A2000FCEEE77A01EA0341214317EE903AC2F84F
:101A30009011C3F30B03D2F890110B431449C2F871
:101A40009031D2F8803043F00203C2F88030114B5D
:101A500080F840C0C1F840314FF0E023012230BC93
:101A6000C3F80821704700BF00810D4000441F40AB
:101A70000000AA420000B442603100205C31002026
:101A800064310020683100200000FF0F00E400E016
:101A90000020002079690000314B40F6617210B5DA
:101AA000C3F8202140F2044400F0DEF82D4A2E490C
:101AB000D2F880302D4843F00303C2F880302C4B1D
:101AC000C1F8604102681A4203D1D1F8A8319A07DF
:101AD0001BD0254A4FF00041244B5963D2F84031C6
:101AE00043F00203C2F84031D2F840319B07FBD4E7
:101AF0004FF400304FF0E0211C4B4FF00042C1F892
:101B00008C0219209A6300F09FF8184A4FF0804029
:101B1000154C002190630A20164B11604FF420727F
:101B2000C4F8A801184600F08BF84FF48002034671
:101B30004FF4810040F243111860C4F858311A6420
:101B40000D4B0E4AC4F84811C3F804224FF0E022AE
:101B50004FF400310123C2F80C11C4F8403110BD1C
:101B600000800D4000C00F4000002E4000900D404E
:101B7000001C1E000000002000200020616B0000FF
:101B800008B50E4B1B6E9B0700D4FBBE72B60C4B08
:101B900000200C4AC3F8400103F160430A49A3F551
:101BA0005F2311649D46BFF34F8F4FF40013074826
:101BB000074ADB6902609B68984700BF00441F40EA
:101BC00000002E4000C00A400300200000802020BA
:101BD000000012EB104BA020104AD96E41F44031A6
:101BE00010B4D96640F23764D96E41F44071D966B9
:101BF00054649064936C1B06FCD4094A40F237612C
:101C0000A02351649364936C13F08003FBD1054AC5
:101C100013705DF8044B704700C00F4000400C404B
:101C200000800C40A2310020F8B500BFF8BC08BC11
:101C30009E467047000000005FF800F0955D0000D0
:101C40005FF800F0DDAA00005FF800F0856000009A
:101C50005FF800F09D6600005FF800F0F962000098
:101C60005FF800F0D9AB00005FF800F0D17200001F
:101C700005010000F9470000ED580000295D000053
:101C800080C00F4000000003190000001000000099
:101C9000E8841F4001000000FF000000FF0000007A
:101CA000000000000000000018000000100000000C
:101CB000E4841F4001000000FF000000FF0000005E
:101CC00000000000000000001F0000002D50000078
:101CD00070C00F40000C0000110000001100000057
:101CE000E0841F40020000002400000012000000F9
:101CF000E0841F40010000001000000011000000FF
:101D0000DC841F40020000002500000012000000DB
:101D1000DC841F40010000001E0000002150000074
:101D200070C00F40C000000012000000130000004F
:101D3000D0841F4001000000FF000000FF000000F1
:101D4000000000000000000013000000130000006D
:101D5000CC841F4001000000FF000000FF000000D5
:101D600000000000000000001C00000015500000F2
:101D70001603550053004200200053006500720016
:101D8000690061006C0000001803540065006500E4
:101D90006E00730079006400750069006E006F00CA
:101DA0000403090409026200030100C032080B00A9
:101DB00002020201000904000001020201000524E0
:101DC0000010010524010101042402060524060077
:101DD000010705820310001009040100020A000037
:101DE00000070503024000000705840240000009C7
:101DF00004020002FF6AFF0007058102400001079C
:101E0000050102400001000009026200030100C058
:101E100032080B0002020201000904000001020264
:101E2000010005240010010524010101042402061B
:101E300005240600010705820310000509040100BE
:101E4000020A0000000705030200020007058402E1
:101E50000002000904020002FF6AC70007058102B0
:101E60000002010705010200020100000A0600024B
:081E7000EF0201400100000037
:101E7800000000000000000000000000000000005A
:101E8800000000000000000000000000000000004A
:101E9800F8B54FF084439D695A6915400DD0254F18
:101EA80001269D6195FAA5F4B4FA84F457F8243014
:101EB80006FA04F49847A543F4D11F4B9D695A6963
:101EC80015400DD01D4F01269D6195FAA5F4B4FA71
:101ED80084F457F8243006FA04F49847A543F4D15B
:101EE800174B9D695A6915400DD0164F01269D6103
:101EF80095FAA5F4B4FA84F457F8243006FA04F4F1
:101F08009847A543F4D1104B9D695A6915400DD0E7
:101F18000E4F01269D6195FAA5F4B4FA84F457F89A
:101F2800243006FA04F49847A543F4D1BFF34F8F41
:101F3800F8BD00BF701D002000400042F01D0020C9
:101F480000800042701E002000C00042F01E0020E9
:101F58000548064B1B1AD90F01EBA301491002D003
:101F6800034B03B118477047C0220020C02200204D
:101F78000000000008B5054B1BB105490548AFF343
:101F88000080BDE80840FFF7E3BF00BF0000000085
:101F98007C300020003C0160034608205A680A7023
:101FA8005A68C2404A70DA888A70DA79CA709A68C0
:101FB8000A719A68C2404A715A898A71DB7ACB7170
:101FC800704700BF0A7803464260487842EA002218
:101FD8005A60887842EA00425A60C87842EA006249
:101FE8005A600A799A60487942EA00229A608879A8
:101FF80042EA004208209A60C97942EA01629A607E
:10200800704700BF00487047F4050020004870473B
:10201800D0050020004870474C0500200048704754
:102028002805002000487047140500200048704724
:10203800F0040020004870476805002000487047F9
:10204800CC04002043680B704FEA132C1A0C1B0EAB
:1020580081F801C08A70CB7083684FEA132C0B712A
:102068001A0C1B0E81F805C08A71CB71C3680C204D
:102078004FEA132C0B721A0C1B0E81F809C08A72D6
:10208800CB72704703460A680C205A604A689A6007
:102098008A68DA60704700BF004870472806002049
:1020A800004870470406002000487047B404002028
:1020B8000048704790040020004870477C040020C6
:1020C800004870475804002043680B704FEA132CEF
:1020D8001A0C1B0E81F801C08A70CB7083684FEA16
:1020E800132C0B711A0C1B0E81F805C08A71CB7169
:1020F800C3680C204FEA132C0B721A0C1B0E81F8C4
:1021080009C08A72CB72704703460A680C205A606D
:102118004A689A608A68DA60704700BF004870476A
:102128009806002000487047740600200048704751
:1021380064060020004870474006002010B4D0F81C
:1021480008C0094C094BC4F800C0094AD0F80CC0B3
:102158000849C3F800C01268006A074B5DF8044BD1
:1021680008601A60704700BF242A0020282A00202F
:102178007C310020202A00201C2A002090F8F80436
:10218800704700BF006A70470048704798060020F3
:102198000048704774060020406B7047004870473D
:1021A8007C040020004870475804002007F004BB56
:1021B80043682DE9F0470B70044643680E461B0A36
:1021C8004B70C3888B70C379CB704368002B00F0C9
:1021D80086800B46C6F1080E0021E2680EEB03006C
:1021E800043352F8212001314FEA122C1A70170CCF
:1021F800150E83F801C09F70DD7062688A42ECD8C2
:1022080000F1040C00F1010A00F1020900F10308D1
:1022180000F1050E851D6346C11D00F108072269FE
:1022280032542269120A06F80A20628A06F809203E
:10223800E27C06F80820226902B333440021C6F183
:10224800040EA2690EEB030C043352F8212001316D
:10225800170A03F8042C150C100E03F8037C03F876
:10226800025C03F8010C22698A42EAD80CF1010EDB
:102278000CF102050CF103010CF10407E36906F8FF
:102288000C30E3691B0A06F80E30E38B7355E37FC5
:102298007354E36903B34FF00008636A4FEA88098F
:1022A80053F828000CF044F8F2190023054625FAE3
:1022B80003F00833202B02F8010BF8D1636A0437C6
:1022C8002A4608F1010853F80910F01905F054FFDF
:1022D800E3692F444345E0D83846BDE8F087082332
:1022E8000C270B210A254FF0090E4FF007089C46D2
:1022F8004FF006094FF0050A042090E770B50379FE
:1023080006460D460B7080680CF012F80446030C64
:102318006870020AEB70030EAA7002462B71681DE2
:10232800B16805F029FF601D70BD00BFF8B583884E
:1023380006460C460B7083881B0A4B7080680BF0AE
:10234800F7FFA070030C0546020A2371030EE27022
:1023580002466371A01DB16805F00EFFF0680BF02E
:10236800E7FF691D02460023214422FA03F00833DF
:10237800202B01F8010FF8D10A35F168AF18601960
:1023880005F0FAFE30690BF0D3FFE2190546002389
:1023980025FA03F10833202B02F8011BF8D1043782
:1023A8002A463169E01905F0E7FE73697819190CB6
:1023B800235422181D0A04301B0E91705570D370D7
:1023C800F8BD00BF0846114607F01CBA10B5044610
:1023D800124894ED021AD4ED030A94ED010A05F0AF
:1023E800BFFA94ED021AD4ED030A94ED010A0C48E1
:1023F80005F0B6FA94ED021AD4ED030A94ED010A39
:10240800084805F0ADFA94ED021AD4ED030A94EDEC
:10241800010A0548BDE8104005F0A2BAE8240020EA
:102428001825002048250020782500202DE9F04FA8
:10243800436883B00E6804460D46B342C0F0B280CC
:102448006660002E00F0B7802A460020C5F1080C0F
:1024580093790CEB020792F8058004321B0492F87A
:1024680000E0D67843EA0823E16843EA0E0343EA2A
:102478000663A36041F82030013063688342E7D8DF
:102488003E1D781CBB1CF91C07F1050A07F1060B59
:10249800324607F1070807F10809EB5C15F800C098
:1024A800E85D1F04695C47EA0C272369074347EA8C
:1024B8000167BB42C0F09480276127B32A440020FB
:1024C800C5F1040C93780CEB020692F801800432F3
:1024D8001B0412F804EC12F8017C43EA0823A169F2
:1024E80043EA0E0343EA0763636141F82030013091
:1024F80023698342E6D806F1010A06F1020B06F1C8
:10250800030806F1040915F80B30A95D15F80A004F
:102518001E0415F8082046EA0026E3690E4346EA39
:102528000266B34256D3E661AEB34FF000086FF0CF
:1025380003074646002305EB0901184611F8012B4D
:102548009A400833202B40EA0200F7D109F1040130
:1025580001EB000A514522D2A7EB090209F1050354
:1025680009F103092944524405EB0900534588BF82
:1025780001220AF04FF905EB0A0205EB0903D146DF
:1025880002F8016C626A236242F8283008F10108F7
:10259800E3694345CED8484603B0BDE8F08F09F15A
:1025A8000309E8E7B100C0680AF088FE6660E060E9
:1025B800002E7FF449AF08224FF00C094FF00B08AA
:1025C8004FF00A0B4FF0090A07211646062305208B
:1025D800042762E7B100606A0AF070FE6062A2E751
:1025E800B900A06901920AF069FE019AA06163E747
:1025F800F8B500230A780D46064602711C460A46BD
:1026080012F801CF0CFA03FC0833202B44EA0C041F
:10261800F6D1671D2B1D052F05D918462246691DC1
:102628000AF0F8F803462544002238462A71B360B8
:10263800F8BD00BFD1F800C00346C2690C30C3F82A
:1026480010C0D1F804C0C3F814C089689961104754
:10265800F8B50B780D4607464C1D83804A7843EA47
:10266800022383800E79CB78360446EA03264B7919
:1026780046EA03668B781E43B31D062B04D93246FF
:10268800063120460AF0C6F8711D00236B54294410
:10269800BC601C4611F8012F9A400833202B44EAED
:1026A8000204F7D106F10A010C44A14237D2A21B59
:1026B800093629440A3AA8190AF0ACF8002329195E
:1026C8002E44184601F8013CFE6011F8012B9A408F
:1026D8000833202B40EA0200F7D1211D0E18B14221
:1026E8001FD2321B631D03342944043A28199E4221
:1026F80038BF01220AF08EF8AA192C440023301D95
:1027080002F8013C3C61937854781B04A95DD278A7
:1027180043EA04230B4343EA02637B61F8BD0936AD
:10272800CCE70334E8E700BFD0ED017A17EE903A22
:10273800C3F3C75200B5002A00F0888002F5607222
:102748004FEA021CC2F307124FFA8CFCC3F3C34EC4
:10275800F5EEC07A4CEA0E0CF1EE10FA81F806C0DC
:102768004FF0000C81F800C048BF62F07F0281F88A
:1027780001C081F802C04FEA431CCA7181F803C046
:102788004FEAE30CDB1281F804C04B71D0ED027AFA
:1027980017EE903AC3F3C752002A5BD002F5607275
:1027A8004FEA021CC2F307124FFA8CFCC3F3C34E64
:1027B800F5EEC07A4CEA0E0CF1EE10FA81F80EC074
:1027C8004FF0000C81F808C048BF62F07F0281F822
:1027D80009C081F80AC04FEA431CCA7381F80BC0CC
:1027E8004FEAE30CDB1281F80CC04B73D0ED037A8F
:1027F80017EE903AC3F3C75252B302F56072100154
:10280800C2F3071240B24FF0000CF5EEC07A81F81F
:1028180010C081F811C0F1EE10FA81F812C04FEA29
:10282800431C81F813C04FEAE30C48BF62F07F02F3
:1028380081F814C04FEAE32CC3F3C343CA7581F887
:1028480015C0034318208B755DF804FB94467DE79B
:102858001046D8E79446A9E700B5CA780346520956
:102868004260087942EAC0025A60487942EAC022C6
:102878005A608879C00400F4F00002435A60C879AD
:1028880091F806E04FEA001C0CF4FE6C5CEA1E1C92
:1028980005D0ACF5607C42EACC525A60C879000693
:1028A80000F0004010435860CA7A52099A60087BC9
:1028B80042EAC0029A60487B42EAC0229A60887B5A
:1028C800C00400F4F00002439A60C87B91F80EE05F
:1028D8004FEA001C0CF4FE6C5CEA1E1C05D0ACF53B
:1028E800607C42EACC529A60C87B000600F0004047
:1028F80010439860CA7C5209DA60087D42EAC00237
:10290800DA60487D42EAC022DA60887DC00400F4BB
:10291800F0000243DA60C87D91F816E04FEA001C27
:102928000CF4FE6C5CEA1E1C05D0ACF5607C42EA37
:10293800CC52DA60C87D0106182001F000410A4334
:10294800DA605DF804FB00BF70B5054604300E463A
:10295800FFF782FF044605F114003119FFF77CFFE9
:10296800204470BD70B5054604300E46FFF774FF6D
:10297800044605F114003119FFF76EFF034605F10F
:1029880024001C443119FFF767FF204470BD00BFC5
:1029980070B5044610300D46FFF75EFF014604F19E
:1029A8000C0604F120002944FFF756FF236B30463C
:1029B800BDE87040184700BFD0ED027A17EE903A94
:1029C800C3F3C75200B5002A00F01F8102F56072F8
:1029D8004FEA021CC2F307124FFA8CFCC3F3C34E32
:1029E800F5EEC07A4CEA0E0CF1EE10FA81F806C04A
:1029F8004FF0000C81F800C048BF62F07F0281F8F8
:102A080001C081F802C04FEA431CCA7181F803C0B3
:102A18004FEAE30CDB1281F804C04B71D0ED037A66
:102A280017EE903AC3F3C752002A00F0F88002F577
:102A380060724FEA021CC2F307124FFA8CFCC3F310
:102A4800C34EF5EEC07A4CEA0E0CF1EE10FA81F89E
:102A58000EC04FF0000C81F808C048BF62F07F023A
:102A680081F809C081F80AC04FEA431CCA7381F88B
:102A78000BC04FEAE30CDB1281F80CC04B73D0EDAE
:102A8800047A17EE903AC3F3C752002A00F0C580C3
:102A980002F560724FEA021CC2F307124FFA8CFC6F
:102AA800C3F3C34EF5EEC07A4CEA0E0CF1EE10FA01
:102AB80081F816C04FF0000C81F810C048BF62F0D2
:102AC8007F0281F811C081F812C04FEA431CCA7511
:102AD80081F813C04FEAE30CDB1281F814C04B7580
:102AE800D0ED067A17EE903AC3F3C752002A00F0E9
:102AF800928002F560724FEA021CC2F307124FFA85
:102B08008CFCC3F3C34EF5EEC07A4CEA0E0CF1EE22
:102B180010FA81F81EC04FF0000C81F818C048BFA9
:102B280062F07F0281F819C081F81AC04FEA431C8D
:102B3800CA7781F81BC04FEAE30CDB1281F81CC08E
:102B48004B77D0ED077A17EE903AC3F3C752002AB5
:102B58005FD002F560724FEA021CC2F307124FFA07
:102B68008CFCC3F3C34EF5EEC07A4CEA0E0CF1EEC2
:102B780010FA81F826C04FF0000C81F820C048BF39
:102B880062F07F0281F821C081F822C04FEA431C1D
:102B980081F8272081F823C04FEAE30CDB1281F883
:102BA80024C081F82530D0ED087A17EE903AC3F3A7
:102BB800C75262B302F560721001C2F3071240B245
:102BC8004FF0000CF5EEC07A81F828C081F829C0D2
:102BD800F1EE10FA81F82AC04FEA431C81F82BC0A5
:102BE8004FEAE30C48BF62F07F0281F82CC04FEA3D
:102BF800E32CC3F3C34381F82F2081F82DC003438E
:102C0800302081F82E305DF804FB9446E6E6104645
:102C1800D6E79446A5E7944673E7944640E794467A
:102C28000DE700BFD0ED027A17EE903AC3F3C75212
:102C380000B5002A00F0B88102F560724FEA021C64
:102C4800C2F307124FFA8CFCC3F3C34EF5EEC07AF9
:102C58004CEA0E0CF1EE10FA81F806C04FF0000CA9
:102C680081F800C048BF62F07F0281F801C081F896
:102C780002C04FEA431CCA7181F803C04FEAE30C53
:102C8800DB1281F804C04B71D0ED037A17EE903A4D
:102C9800C3F3C752002A00F0978102F560724FEA29
:102CA800021CC2F307124FFA8CFCC3F3C34EF5EEB5
:102CB800C07A4CEA0E0CF1EE10FA81F80EC04FF013
:102CC800000C81F808C048BF62F07F0281F809C093
:102CD80081F80AC04FEA431CCA7381F80BC04FEA57
:102CE800E30CDB1281F80CC04B73D0ED047A17EEBD
:102CF800903AC3F3C752002A00F0648102F560726B
:102D08004FEA021CC2F307124FFA8CFCC3F3C34EFE
:102D1800F5EEC07A4CEA0E0CF1EE10FA81F816C006
:102D28004FF0000C81F810C048BF62F07F0281F8B4
:102D380011C081F812C04FEA431CCA7581F813C04C
:102D48004FEAE30CDB1281F814C04B75D0ED067A1C
:102D580017EE903AC3F3C752002A00F0318102F50A
:102D680060724FEA021CC2F307124FFA8CFCC3F3DD
:102D7800C34EF5EEC07A4CEA0E0CF1EE10FA81F86B
:102D88001EC04FF0000C81F818C048BF62F07F02E7
:102D980081F819C081F81AC04FEA431CCA7781F834
:102DA8001BC04FEAE30CDB1281F81CC04B77D0ED57
:102DB800077A17EE903AC3F3C752002A00F0FE8054
:102DC80002F560724FEA021CC2F307124FFA8CFC3C
:102DD800C3F3C34EF5EEC07A4CEA0E0CF1EE10FACE
:102DE80081F826C04FF0000C81F820C048BF62F07F
:102DF8007F0281F821C081F822C04FEA431C81F884
:102E0800272081F823C04FEAE30CDB1281F824C0A5
:102E180081F82530D0ED087A17EE903AC3F3C752FF
:102E2800002A00F0C98002F560724FEA021CC2F362
:102E380007124FFA8CFCC3F3C34EF5EEC07A4CEA86
:102E48000E0CF1EE10FA81F82EC04FF0000C81F84C
:102E580028C048BF62F07F0281F829C081F82AC0E3
:102E68004FEA431C81F82F2081F82BC04FEAE30C6E
:102E7800DB1281F82CC081F82D30D0ED0A7A17EEDC
:102E8800903AC3F3C752002A00F0948002F56072AA
:102E98004FEA021CC2F307124FFA8CFCC3F3C34E6D
:102EA800F5EEC07A4CEA0E0CF1EE10FA81F836C055
:102EB8004FF0000C81F830C048BF62F07F0281F803
:102EC80031C081F832C04FEA431C81F8372081F8BD
:102ED80033C04FEAE30CDB1281F834C081F8353097
:102EE800D0ED0B7A17EE903AC3F3C752002A5FD0A1
:102EF80002F560724FEA021CC2F307124FFA8CFC0B
:102F0800C3F3C34EF5EEC07A4CEA0E0CF1EE10FA9C
:102F180081F83EC04FF0000C81F838C048BF62F01D
:102F28007F0281F839C081F83AC04FEA431C81F822
:102F38003F2081F83BC04FEAE30CDB1281F83CC02C
:102F480081F83D30D0ED0C7A17EE903AC3F3C752B2
:102F580062B302F560721001C2F3071240B24FF07B
:102F6800000CF5EEC07A81F840C081F841C0F1EE5E
:102F780010FA81F842C04FEA431C81F843C04FEA77
:102F8800E30C48BF62F07F0281F844C04FEAE32CAB
:102F9800C3F3C34381F8472081F845C00343482061
:102FA80081F846305DF804FB94464DE61046D6E7B6
:102FB8009446A5E7944671E794463CE7944607E7AC
:102FC8009446D4E69446A1E694466EE6214B1A68E8
:102FD800D2E90010D3680968006810B418429468F0
:102FE80001EA04012ED0137C03F00303D9B943F09E
:102FF80008039908013B11740D2B0BD8DFE803F087
:103008000D071C070A160D0D160A071C070D536934
:10301800013B53615DF8044B704753695DF8044BFD
:1030280001335361704743F00403E0E753695DF8E7
:10303800044B023B5361704753695DF8044B0233FC
:1030480053617047137C03F003030029D1D043F088
:103058000403CEE700260020224BD3F89C20D2E9B7
:103068000010D3680968006810B41842946801EA2F
:1030780004012ED0137C03F00303D9B943F00803ED
:103088009908013B11740D2B0BD8DFE803F00D07ED
:103098001C070A160D0D160A071C070D5369013B7C
:1030A80053615DF8044B704753695DF8044B013375
:1030B8005361704743F00403E0E753695DF8044B3C
:1030C800023B5361704753695DF8044B0233536107
:1030D8007047137C03F003030029D1D043F00403A5
:1030E800CEE700BF00260020224BD3F89420D2E977
:1030F8000010D3680968006810B41842946801EA9F
:1031080004012ED0137C03F00303D9B943F008035C
:103118009908013B11740D2B0BD8DFE803F00D075C
:103128001C070A160D0D160A071C070D5369013BEB
:1031380053615DF8044B704753695DF8044B0133E4
:103148005361704743F00403E0E753695DF8044BAB
:10315800023B5361704753695DF8044B0233536176
:103168007047137C03F003030029D1D043F0040314
:10317800CEE700BF00260020224BD3F89820D2E9E2
:103188000010D3680968006810B41842946801EA0E
:1031980004012ED0137C03F00303D9B943F00803CC
:1031A8009908013B11740D2B0BD8DFE803F00D07CC
:1031B8001C070A160D0D160A071C070D5369013B5B
:1031C80053615DF8044B704753695DF8044B013354
:1031D8005361704743F00403E0E753695DF8044B1B
:1031E800023B5361704753695DF8044B02335361E6
:1031F8007047137C03F003030029D1D043F0040384
:10320800CEE700BF00260020214B5A68D2E9001003
:10321800D3680968006810B41842946801EA040188
:103228002ED0137C03F00303D9B943F0080399089F
:10323800013B11740D2B0BD8DFE803F00D071C07B9
:103248000A160D0D160A071C070D5369013B536139
:103258005DF8044B704753695DF8044B01335361C3
:10326800704743F00403E0E753695DF8044B023B01
:103278005361704753695DF8044B023353617047DB
:10328800137C03F003030029D1D043F00403CEE7F5
:1032980000260020214B9A68D2E90010D3680968FB
:1032A800006810B41842946801EA04012ED0137C17
:1032B80003F00303D9B943F008039908013B1174DB
:1032C8000D2B0BD8DFE803F00D071C070A160D0DB0
:1032D800160A071C070D5369013B53615DF8044B3F
:1032E800704753695DF8044B01335361704743F0ED
:1032F8000403E0E753695DF8044B023B53617047F0
:1033080053695DF8044B023353617047137C03F033
:1033180003030029D1D043F00403CEE700260020A0
:10332800214BDA68D2E90010D3680968006810B444
:103338001842946801EA04012ED0137C03F00303B9
:10334800D9B943F008039908013B11740D2B0BD828
:10335800DFE803F00D071C070A160D0D160A071CF7
:10336800070D5369013B53615DF8044B704753697E
:103378005DF8044B01335361704743F00403E0E701
:1033880053695DF8044B023B5361704753695DF81C
:10339800044B023353617047137C03F00303002985
:1033A800D1D043F00403CEE700260020214B1A6950
:1033B800D2E90010D3680968006810B4184294680C
:1033C80001EA04012ED0137C03F00303D9B943F0BA
:1033D80008039908013B11740D2B0BD8DFE803F0A3
:1033E8000D071C070A160D0D160A071C070D536951
:1033F800013B53615DF8044B704753695DF8044B1A
:1034080001335361704743F00403E0E753695DF803
:10341800044B023B5361704753695DF8044B023318
:1034280053617047137C03F003030029D1D043F0A4
:103438000403CEE700260020214B5A69D2E9001088
:10344800D3680968006810B41842946801EA040156
:103458002ED0137C03F00303D9B943F0080399086D
:10346800013B11740D2B0BD8DFE803F00D071C0787
:103478000A160D0D160A071C070D5369013B536107
:103488005DF8044B704753695DF8044B0133536191
:10349800704743F00403E0E753695DF8044B023BCF
:1034A8005361704753695DF8044B023353617047A9
:1034B800137C03F003030029D1D043F00403CEE7C3
:1034C80000260020214B9A69D2E90010D3680968C8
:1034D800006810B41842946801EA04012ED0137CE5
:1034E80003F00303D9B943F008039908013B1174A9
:1034F8000D2B0BD8DFE803F00D071C070A160D0D7E
:10350800160A071C070D5369013B53615DF8044B0C
:10351800704753695DF8044B01335361704743F0BA
:103528000403E0E753695DF8044B023B53617047BD
:1035380053695DF8044B023353617047137C03F001
:1035480003030029D1D043F00403CEE7002600206E
:10355800214BDA69D2E90010D3680968006810B411
:103568001842946801EA04012ED0137C03F0030387
:10357800D9B943F008039908013B11740D2B0BD8F6
:10358800DFE803F00D071C070A160D0D160A071CC5
:10359800070D5369013B53615DF8044B704753694C
:1035A8005DF8044B01335361704743F00403E0E7CF
:1035B80053695DF8044B023B5361704753695DF8EA
:1035C800044B023353617047137C03F00303002953
:1035D800D1D043F00403CEE700260020214B1A6A1D
:1035E800D2E90010D3680968006810B418429468DA
:1035F80001EA04012ED0137C03F00303D9B943F088
:1036080008039908013B11740D2B0BD8DFE803F070
:103618000D071C070A160D0D160A071C070D53691E
:10362800013B53615DF8044B704753695DF8044BE7
:1036380001335361704743F00403E0E753695DF8D1
:10364800044B023B5361704753695DF8044B0233E6
:1036580053617047137C03F003030029D1D043F072
:103668000403CEE700260020214B5A6AD2E9001055
:10367800D3680968006810B41842946801EA040124
:103688002ED0137C03F00303D9B943F0080399083B
:10369800013B11740D2B0BD8DFE803F00D071C0755
:1036A8000A160D0D160A071C070D5369013B5361D5
:1036B8005DF8044B704753695DF8044B013353615F
:1036C800704743F00403E0E753695DF8044B023B9D
:1036D8005361704753695DF8044B02335361704777
:1036E800137C03F003030029D1D043F00403CEE791
:1036F80000260020214B9A6AD2E90010D368096895
:10370800006810B41842946801EA04012ED0137CB2
:1037180003F00303D9B943F008039908013B117476
:103728000D2B0BD8DFE803F00D071C070A160D0D4B
:10373800160A071C070D5369013B53615DF8044BDA
:10374800704753695DF8044B01335361704743F088
:103758000403E0E753695DF8044B023B536170478B
:1037680053695DF8044B023353617047137C03F0CF
:1037780003030029D1D043F00403CEE7002600203C
:10378800214BDA6AD2E90010D3680968006810B4DE
:103798001842946801EA04012ED0137C03F0030355
:1037A800D9B943F008039908013B11740D2B0BD8C4
:1037B800DFE803F00D071C070A160D0D160A071C93
:1037C800070D5369013B53615DF8044B704753691A
:1037D8005DF8044B01335361704743F00403E0E79D
:1037E80053695DF8044B023B5361704753695DF8B8
:1037F800044B023353617047137C03F00303002921
:10380800D1D043F00403CEE700260020214B1A6BE9
:10381800D2E90010D3680968006810B418429468A7
:1038280001EA04012ED0137C03F00303D9B943F055
:1038380008039908013B11740D2B0BD8DFE803F03E
:103848000D071C070A160D0D160A071C070D5369EC
:10385800013B53615DF8044B704753695DF8044BB5
:1038680001335361704743F00403E0E753695DF89F
:10387800044B023B5361704753695DF8044B0233B4
:1038880053617047137C03F003030029D1D043F040
:103898000403CEE700260020214B5A6BD2E9001022
:1038A800D3680968006810B41842946801EA0401F2
:1038B8002ED0137C03F00303D9B943F00803990809
:1038C800013B11740D2B0BD8DFE803F00D071C0723
:1038D8000A160D0D160A071C070D5369013B5361A3
:1038E8005DF8044B704753695DF8044B013353612D
:1038F800704743F00403E0E753695DF8044B023B6B
:103908005361704753695DF8044B02335361704744
:10391800137C03F003030029D1D043F00403CEE75E
:1039280000260020214B9A6BD2E90010D368096861
:10393800006810B41842946801EA04012ED0137C80
:1039480003F00303D9B943F008039908013B117444
:103958000D2B0BD8DFE803F00D071C070A160D0D19
:10396800160A071C070D5369013B53615DF8044BA8
:10397800704753695DF8044B01335361704743F056
:103988000403E0E753695DF8044B023B5361704759
:1039980053695DF8044B023353617047137C03F09D
:1039A80003030029D1D043F00403CEE7002600200A
:1039B800214BDA6BD2E90010D3680968006810B4AB
:1039C8001842946801EA04012ED0137C03F0030323
:1039D800D9B943F008039908013B11740D2B0BD892
:1039E800DFE803F00D071C070A160D0D160A071C61
:1039F800070D5369013B53615DF8044B70475369E8
:103A08005DF8044B01335361704743F00403E0E76A
:103A180053695DF8044B023B5361704753695DF885
:103A2800044B023353617047137C03F003030029EE
:103A3800D1D043F00403CEE700260020214B1A6CB6
:103A4800D2E90010D3680968006810B41842946875
:103A580001EA04012ED0137C03F00303D9B943F023
:103A680008039908013B11740D2B0BD8DFE803F00C
:103A78000D071C070A160D0D160A071C070D5369BA
:103A8800013B53615DF8044B704753695DF8044B83
:103A980001335361704743F00403E0E753695DF86D
:103AA800044B023B5361704753695DF8044B023382
:103AB80053617047137C03F003030029D1D043F00E
:103AC8000403CEE700260020214B5A6CD2E90010EF
:103AD800D3680968006810B41842946801EA0401C0
:103AE8002ED0137C03F00303D9B943F008039908D7
:103AF800013B11740D2B0BD8DFE803F00D071C07F1
:103B08000A160D0D160A071C070D5369013B536170
:103B18005DF8044B704753695DF8044B01335361FA
:103B2800704743F00403E0E753695DF8044B023B38
:103B38005361704753695DF8044B02335361704712
:103B4800137C03F003030029D1D043F00403CEE72C
:103B580000260020214B9A6CD2E90010D36809682E
:103B6800006810B41842946801EA04012ED0137C4E
:103B780003F00303D9B943F008039908013B117412
:103B88000D2B0BD8DFE803F00D071C070A160D0DE7
:103B9800160A071C070D5369013B53615DF8044B76
:103BA800704753695DF8044B01335361704743F024
:103BB8000403E0E753695DF8044B023B5361704727
:103BC80053695DF8044B023353617047137C03F06B
:103BD80003030029D1D043F00403CEE700260020D8
:103BE800214BDA6CD2E90010D3680968006810B478
:103BF8001842946801EA04012ED0137C03F00303F1
:103C0800D9B943F008039908013B11740D2B0BD85F
:103C1800DFE803F00D071C070A160D0D160A071C2E
:103C2800070D5369013B53615DF8044B70475369B5
:103C38005DF8044B01335361704743F00403E0E738
:103C480053695DF8044B023B5361704753695DF853
:103C5800044B023353617047137C03F003030029BC
:103C6800D1D043F00403CEE700260020214B1A6D83
:103C7800D2E90010D3680968006810B41842946843
:103C880001EA04012ED0137C03F00303D9B943F0F1
:103C980008039908013B11740D2B0BD8DFE803F0DA
:103CA8000D071C070A160D0D160A071C070D536988
:103CB800013B53615DF8044B704753695DF8044B51
:103CC80001335361704743F00403E0E753695DF83B
:103CD800044B023B5361704753695DF8044B023350
:103CE80053617047137C03F003030029D1D043F0DC
:103CF8000403CEE700260020214B5A6DD2E90010BC
:103D0800D3680968006810B41842946801EA04018D
:103D18002ED0137C03F00303D9B943F008039908A4
:103D2800013B11740D2B0BD8DFE803F00D071C07BE
:103D38000A160D0D160A071C070D5369013B53613E
:103D48005DF8044B704753695DF8044B01335361C8
:103D5800704743F00403E0E753695DF8044B023B06
:103D68005361704753695DF8044B023353617047E0
:103D7800137C03F003030029D1D043F00403CEE7FA
:103D880000260020214B9A6DD2E90010D3680968FB
:103D9800006810B41842946801EA04012ED0137C1C
:103DA80003F00303D9B943F008039908013B1174E0
:103DB8000D2B0BD8DFE803F00D071C070A160D0DB5
:103DC800160A071C070D5369013B53615DF8044B44
:103DD800704753695DF8044B01335361704743F0F2
:103DE8000403E0E753695DF8044B023B53617047F5
:103DF80053695DF8044B023353617047137C03F039
:103E080003030029D1D043F00403CEE700260020A5
:103E1800214BDA6DD2E90010D3680968006810B444
:103E28001842946801EA04012ED0137C03F00303BE
:103E3800D9B943F008039908013B11740D2B0BD82D
:103E4800DFE803F00D071C070A160D0D160A071CFC
:103E5800070D5369013B53615DF8044B7047536983
:103E68005DF8044B01335361704743F00403E0E706
:103E780053695DF8044B023B5361704753695DF821
:103E8800044B023353617047137C03F0030300298A
:103E9800D1D043F00403CEE700260020214B1A6E50
:103EA800D2E90010D3680968006810B41842946811
:103EB80001EA04012ED0137C03F00303D9B943F0BF
:103EC80008039908013B11740D2B0BD8DFE803F0A8
:103ED8000D071C070A160D0D160A071C070D536956
:103EE800013B53615DF8044B704753695DF8044B1F
:103EF80001335361704743F00403E0E753695DF809
:103F0800044B023B5361704753695DF8044B02331D
:103F180053617047137C03F003030029D1D043F0A9
:103F28000403CEE700260020214B5A6ED2E9001088
:103F3800D3680968006810B41842946801EA04015B
:103F48002ED0137C03F00303D9B943F00803990872
:103F5800013B11740D2B0BD8DFE803F00D071C078C
:103F68000A160D0D160A071C070D5369013B53610C
:103F78005DF8044B704753695DF8044B0133536196
:103F8800704743F00403E0E753695DF8044B023BD4
:103F98005361704753695DF8044B023353617047AE
:103FA800137C03F003030029D1D043F00403CEE7C8
:103FB80000260020214B9A6ED2E90010D3680968C8
:103FC800006810B41842946801EA04012ED0137CEA
:103FD80003F00303D9B943F008039908013B1174AE
:103FE8000D2B0BD8DFE803F00D071C070A160D0D83
:103FF800160A071C070D5369013B53615DF8044B12
:10400800704753695DF8044B01335361704743F0BF
:104018000403E0E753695DF8044B023B53617047C2
:1040280053695DF8044B023353617047137C03F006
:1040380003030029D1D043F00403CEE70026002073
:10404800214BDA6ED2E90010D3680968006810B411
:104058001842946801EA04012ED0137C03F003038C
:10406800D9B943F008039908013B11740D2B0BD8FB
:10407800DFE803F00D071C070A160D0D160A071CCA
:10408800070D5369013B53615DF8044B7047536951
:104098005DF8044B01335361704743F00403E0E7D4
:1040A80053695DF8044B023B5361704753695DF8EF
:1040B800044B023353617047137C03F00303002958
:1040C800D1D043F00403CEE700260020214B1A6F1D
:1040D800D2E90010D3680968006810B418429468DF
:1040E80001EA04012ED0137C03F00303D9B943F08D
:1040F80008039908013B11740D2B0BD8DFE803F076
:104108000D071C070A160D0D160A071C070D536923
:10411800013B53615DF8044B704753695DF8044BEC
:1041280001335361704743F00403E0E753695DF8D6
:10413800044B023B5361704753695DF8044B0233EB
:1041480053617047137C03F003030029D1D043F077
:104158000403CEE700260020214B5A6FD2E9001055
:10416800D3680968006810B41842946801EA040129
:104178002ED0137C03F00303D9B943F00803990840
:10418800013B11740D2B0BD8DFE803F00D071C075A
:104198000A160D0D160A071C070D5369013B5361DA
:1041A8005DF8044B704753695DF8044B0133536164
:1041B800704743F00403E0E753695DF8044B023BA2
:1041C8005361704753695DF8044B0233536170477C
:1041D800137C03F003030029D1D043F00403CEE796
:1041E80000260020214B9A6FD2E90010D368096895
:1041F800006810B41842946801EA04012ED0137CB8
:1042080003F00303D9B943F008039908013B11747B
:104218000D2B0BD8DFE803F00D071C070A160D0D50
:10422800160A071C070D5369013B53615DF8044BDF
:10423800704753695DF8044B01335361704743F08D
:104248000403E0E753695DF8044B023B5361704790
:1042580053695DF8044B023353617047137C03F0D4
:1042680003030029D1D043F00403CEE70026002041
:10427800214BDA6FD2E90010D3680968006810B4DE
:104288001842946801EA04012ED0137C03F003035A
:10429800D9B943F008039908013B11740D2B0BD8C9
:1042A800DFE803F00D071C070A160D0D160A071C98
:1042B800070D5369013B53615DF8044B704753691F
:1042C8005DF8044B01335361704743F00403E0E7A2
:1042D80053695DF8044B023B5361704753695DF8BD
:1042E800044B023353617047137C03F00303002926
:1042F800D1D043F00403CEE700260020224BD3F8A8
:104308008020D2E90010D3680968006810B4184208
:10431800946801EA04012ED0137C03F00303D9B991
:1043280043F008039908013B11740D2B0BD8DFE803
:1043380003F00D071C070A160D0D160A071C070DBA
:104348005369013B53615DF8044B704753695DF84D
:10435800044B01335361704743F00403E0E75369AA
:104368005DF8044B023B5361704753695DF8044B99
:10437800023353617047137C03F003030029D1D043
:1043880043F00403CEE700BF00260020224BD3F8F9
:104398008420D2E90010D3680968006810B4184274
:1043A800946801EA04012ED0137C03F00303D9B901
:1043B80043F008039908013B11740D2B0BD8DFE873
:1043C80003F00D071C070A160D0D160A071C070D2A
:1043D8005369013B53615DF8044B704753695DF8BD
:1043E800044B01335361704743F00403E0E753691A
:1043F8005DF8044B023B5361704753695DF8044B09
:10440800023353617047137C03F003030029D1D0B2
:1044180043F00403CEE700BF00260020224BD3F868
:104428008820D2E90010D3680968006810B41842DF
:10443800946801EA04012ED0137C03F00303D9B970
:1044480043F008039908013B11740D2B0BD8DFE8E2
:1044580003F00D071C070A160D0D160A071C070D99
:104468005369013B53615DF8044B704753695DF82C
:10447800044B01335361704743F00403E0E7536989
:104488005DF8044B023B5361704753695DF8044B78
:10449800023353617047137C03F003030029D1D022
:1044A80043F00403CEE700BF00260020224BD3F8D8
:1044B8008C20D2E90010D3680968006810B418424B
:1044C800946801EA04012ED0137C03F00303D9B9E0
:1044D80043F008039908013B11740D2B0BD8DFE852
:1044E80003F00D071C070A160D0D160A071C070D09
:1044F8005369013B53615DF8044B704753695DF89C
:10450800044B01335361704743F00403E0E75369F8
:104518005DF8044B023B5361704753695DF8044BE7
:10452800023353617047137C03F003030029D1D091
:1045380043F00403CEE700BF00260020224BD3F847
:104548009020D2E90010D3680968006810B41842B6
:10455800946801EA04012ED0137C03F00303D9B94F
:1045680043F008039908013B11740D2B0BD8DFE8C1
:1045780003F00D071C070A160D0D160A071C070D78
:104588005369013B53615DF8044B704753695DF80B
:10459800044B01335361704743F00403E0E7536968
:1045A8005DF8044B023B5361704753695DF8044B57
:1045B800023353617047137C03F003030029D1D001
:1045C80043F00403CEE700BF002600206329F0B5BE
:1045D800044685B00E46104603DD94F8F854002DC5
:1045E8003FD0036804F223211B689847C0F30723D0
:1045F8005FFA86FE4FF6FF61034446F30726A4F8E8
:104608001C12DB4384F82262A4F81E0284F82032CC
:10461800431C84F821E22EDB04F2222204F2212337
:104628004FF0000C024401E013F801EF9342F44408
:10463800FAD16FEA0C0C5FFA8CFC00F1080540F225
:10464800012322189D4282F823C217D0666804F518
:104658000770334A33685B68934205D1294605F0F1
:10466800D1F8284605B0F0BD01462A46304698479D
:10467800284605B0F0BD4FF0FF0CDEE7294A0321BC
:1046880023688DF808101B680192274A274D93422A
:1046980003953AD104F50A7605F1300EAC4610368A
:1046A8001035BCE80F00F44546F8100C46F80C1C11
:1046B80046F8082C46F8043CF0D13823DFF874E0BB
:1046C8001B4F04F2212203CD306004F25F20716099
:1046D8000721C4F824320023C4E987E701E012F86F
:1046E800011F90420B44FAD1DB4365680C4A04F57C
:1046F800077084F860322B685B6893420AD14521C1
:1047080005F080F84FF0FF35ABE701AA07212046F6
:104718009847F7E70146452228469847F2E700BF41
:1047280055050000440700205D270000840500208F
:10473800C2070003FFFE3D0030B5002183B0244DC1
:1047480004460DF106034160056001AA8160C1605D
:104758000DF102011F4802F0E9FBBDF902302046C5
:1047680005EE103ABDF9043006EE103ABDF90630F0
:10477800B8EEC55B07EE103AB8EEC66B9FED103B7E
:10478800B8EEC77B25EE035B26EE036B27EE037BB3
:104798009FED0D4B25EE045B26EE046B27EE047BA4
:1047A800B7EEC55BB7EEC66BB7EEC77B84ED015AB3
:1047B80084ED026A84ED037A03B030BDAFF3008064
:1047C800000000000000103F1F85EB51B89E2340F9
:1047D80014070020C029002030B5002183B0244DE3
:1047E80004460DF106034160056001AA8160C160BD
:1047F8000DF102011F4802F0B9FBBDF90230204655
:1048080006EE103ABDF9043007EE103ABDF906304D
:10481800B8EEC66B02EE103AB8EEC77B9FED103BC0
:10482800B8EEC22B86EE035B87EE036B82EE037B4A
:104838009FED0D4B25EE045B26EE046BB7EEC55BD2
:1048480027EE047B84ED015AB7EEC66BB7EEC77B43
:1048580084ED026A84ED037A03B030BDAFF30080C3
:104868000000000000606040399D52A246DF913F81
:10487800140700202C2A00200B4610B5272800F228
:104888009B81DFE810F0900186017D0174016B01C6
:1048980062015901500147013E0135012C012301F4
:1048A8001A0111010801FF00F600ED00E400DB0029
:1048B800D200C900C000B700AE00A5009C0093005C
:1048C8008A00810078006E0064005A00500046009B
:1048D8003C0032002800B94C0422B9492720C4F80A
:1048E8009C3003F0BFFB012010BDB44C0422B54935
:1048F8002620C4F8983003F0B5FB012010BDAF4C5A
:104908000422B1492520C4F8943003F0ABFB012000
:1049180010BDAA4C0422AD492420C4F8903003F0FD
:10492800A1FB012010BDA54C0422A9492320C4F8ED
:104938008C3003F097FB012010BDA04C0422A54940
:104948002220C4F8883003F08DFB012010BD9B4C59
:104958000422A1492120C4F8843003F083FB0120FC
:1049680010BD964C04229D492020C4F8803003F0E5
:1049780079FB012010BD914C042299491F20E3675F
:1049880003F070FB012010BD8C4C042295491E20B9
:10499800A36703F067FB012010BD884C04229249ED
:1049A8001D20636703F05EFB012010BD834C0422C9
:1049B8008E491C20236703F055FB012010BD7F4C56
:1049C80004228B491B20E36603F04CFB012010BD39
:1049D8007A4C042287491A20A36603F043FB01207E
:1049E80010BD764C042284491920636603F03AFB13
:1049F800012010BD714C042280491820236603F061
:104A080031FB012010BD6D4C04227D491720E36560
:104A180003F028FB012010BD684C042279491620B8
:104A2800A36503F01FFB012010BD644C04227649E6
:104A38001520636503F016FB012010BD5F4C0422AE
:104A480072491420236503F00DFB012010BD5B4C57
:104A580004226F491320E36403F004FB012010BD16
:104A6800564C04226B491220A36403F0FBFA012080
:104A780010BD524C042268491120636403F0F2FA15
:104A8800012010BD4D4C042264491020236403F01A
:104A9800E9FA012010BD494C042261490F20E36363
:104AA80003F0E0FA012010BD444C04225D490E20B9
:104AB800A36303F0D7FA012010BD404C04225A49E1
:104AC8000D20636303F0CEFA012010BD3B4C042295
:104AD80056490C20236303F0C5FA012010BD374C5A
:104AE800042253490B20E36203F0BCFA012010BDF5
:104AF800324C04224F490A20A36203F0B3FA012082
:104B080010BD2E4C04224C490920636203F0AAFA16
:104B1800012010BD294C042248490820236203F0D3
:104B2800A1FA012010BD254C042245490720E36164
:104B380003F098FA012010BD204C042241490620B8
:104B4800A36103F08FFA012010BD1C4C04223E49DA
:104B58000520636103F086FA012010BD0422174C7A
:104B68003A491046236103F07DFA012010BD134C29
:104B7800042237490320E36003F074FA012010BDD2
:104B88000E4C042233490220A36003F06BFA012083
:104B980010BD0446094804222F494360012003F050
:104BA80061FA204610BD054C04222C4900202360E0
:104BB80003F058FA012010BD002010BD0026002087
:104BC800E91100000913000079120000CD26000049
:104BD8003D260000AD2500001D2500008D240000A5
:104BE8000124000075230000E92200005D22000076
:104BF800D121000045210000B92000002D2000002F
:104C0800A11F0000151F0000891E0000FD1D0000E7
:104C1800711D0000E51C0000591C0000CD1B0000A0
:104C2800411B0000B51A0000291A00009D19000058
:104C38001119000085180000F91700006D17000011
:104C4800E116000055160000C91500003D150000CA
:104C5800B114000025140000991300005D11000034
:104C68002DE9F04182B004460F4616469DF820C053
:104C78001D46BCF1000F01D017460E4602213846EA
:104C880003F0B6F90221304603F0B2F925493B0199
:104C98002548DFF89CC051F8038001EB0713256015
:104CA800D3F80CE001EB0613C4F80C80C4F814E048
:104CB800DA683301C9580023A26123621B4B456897
:104CC8001B682161ACFB033C4FF4FA634FEA9C4C30
:104CD80003FB0CFC43685B1B9C45FBD8D8F80030F1
:104CE800384609681EEA030F14BF012300230A424D
:104CF80004F10C0118BF43F0020301912377FFF779
:104D0800BBFD03460199304684F82430FFF7B4FD13
:104D180094F8242003462046134484F8243002B033
:104D2800BDE8F081A40A0020001000E0E413002090
:104D380083DE1B4300000000F0B5C54AC54BC64CD6
:104D4800D2ED000A93ED000AC44994ED001A2DED46
:104D5800048B8BB006A802F0D9FAC14B93F8242033
:104D6800012A40F2E08172B61A6A62B69D689A60BA
:104D7800521BBC49D3ED006A07EE902A5D680868AB
:104D8800B8EEE66BB8EEE77BB74A5860401B92F87E
:104D9800243087EE065B07EE900A012BB8EE677B9E
:104DA8009FEDA54B87EE046B85EE068BBDEEC88B99
:104DB80040F2A68172B6136A62B65568086892ED29
:104DC800005A5060401BB8EEC55B07EE900A906829
:104DD80093601B1AB8EE676B07EE103AA34BB8EE58
:104DE800C77B93F824209FED943B012A86EE034B62
:104DF80087EE056B86EE047BFDEEC78B40F26C8177
:104E080072B61A6A62B65D68086893ED006A5860FF
:104E1800401BB8EEC66B07EE900A98689A60B8EE29
:104E2800677B121A924B9FED844B87EE045B07EE6B
:104E3800902A93F82420012AB8EEE77B87EE064BE8
:104E480084EE059BBDEEC99B40F2328172B6186AAA
:104E580062B65A68F8EEC80A0968D3ED006A8A1A79
:104E68005960B8EEE66B07EE902A9A689860B8EE3B
:104E7800677B821A7F489FED704B87EE045BDDED00
:104E8800067AB8EEE70A07EE902AB8EEE77B87EED7
:104E9800064B84EE057BFDEEC79B02F015FDFDEE8B
:104EA800C07B754817EE901A02F0A6FCDDED077A74
:104EB8007248F8EEE80AB8EEE70A02F005FDFDEEE2
:104EC800C07B6F4817EE901A02F096FCDDED087A69
:104ED8006C48F8EEC90AB8EEE70A02F0F5FCFDEEF8
:104EE800C07B694817EE901A02F086FCDDED097A5E
:104EF8006648F8EEE90AB8EEE70A02F0E5FCFDEECE
:104F0800C07B634817EE901A02F076FC534803788A
:104F1800023B012B76D919EE103A18EE902A18EEBA
:104F2800101ACDED009A02F03BFA8DED030ACDED93
:104F3800040A8DED051A5749574F584D039C04989C
:104F4800059A6C60A860EA60D1E902131E683668A9
:104F5800BE4240F0118163294CDC250A83F82342C4
:104F680083F8270283F82452250C240E83F82B2279
:104F780083F8255283F82642040A494D83F82842CB
:104F8800040C000EC3F81C5283F82942140A83F853
:104F98002A02100C83F82C42120EF32483F82D02F7
:104FA800C8B241F3072183F82E2203F2212283F8A5
:104FB8002212002183F8204203F22E2483F82102D2
:104FC80001E012F8010F94420144FAD1C9435C6828
:104FD80003F50770334A83F82F1223685B689342FE
:104FE80040F0DF8114210BB0BDEC048BBDE8F0402C
:104FF80004F008BC93F8F854002DAED10BB0BDEC0A
:10500800048BF0BD94ED009A9FED0D6BB7EEC97A55
:10501800B4EEC67BF1EE10FA00F198809FED0A6BB2
:10502800B4EEC67BF1EE10FA40F35E8100219FEDED
:105038001E9A8EE0AFF3008000000000004CED40A7
:105048008FC2F5285C8FDABF8FC2F5285C8FDA3FF4
:10505800282A0020242A0020202A00203C2A002078
:105068006C2A00207C310020A82A0020E42A002095
:10507800202B0020E8240020582A00201825002092
:10508800942A002048250020D02A002078250020D6
:105098000C2B0020103100205D270000003100207B
:1050A800FFFE0C0055050000E17AD43EE17AD4BE3B
:1050B80072B6D8685A69006810401A6915689A6902
:1050C800154200F0E5801A7F02F0030208B142F0B1
:1050D800040242F00802E1E072B6D8685A69006832
:1050E80010401A6915689A69154200F0A5801A7F60
:1050F80002F0030208B142F0040242F00802A1E003
:1051080072B6D06853690068184013691D689369BE
:105118001D4265D0137F03F0030308B143F0040375
:1051280043F0080362E072B6D3E903105A690968CC
:10513800006811409A69104227D01A7F02F00302D2
:1051480009B142F0040242F0080224E0B4211FED44
:10515800299A9B4802F0A8FAB0EE490A18EE902A5C
:1051680018EE101A974802F0EFF88DED030ACDED0E
:10517800040A8DED051ADEE618462A4633460BB0BA
:10518800BDEC048BBDE8F04018471A7F02F003021B
:1051980009B142F004029108013A19770D2A3FF645
:1051A800E3AD01A151F822F0CB340000C334000074
:1051B8002B350000C3340000F92E00002335000011
:1051C800CB340000CB34000023350000F92E00005A
:1051D800C33400002B350000C3340000CB3400007A
:1051E800137F03F0030308B143F004039808013B5D
:1051F80010770D2B3FF6DFAD01A050F823F000BF6C
:10520800DB340000D3340000FB340000D33400004A
:10521800472F0000F3340000DB340000DB340000CB
:10522800F3340000472F0000D3340000FB340000A3
:10523800D3340000DB3400001A7F02F0030208B107
:1052480042F004029008013A18770D2A3FF6D9ADCA
:1052580001A050F822F000BFBB340000B3340000B6
:105268001B350000B3340000932F000013350000F5
:10527800BB340000BB34000013350000932F00003E
:10528800B33400001B350000B3340000BB34000009
:105298001A7F02F0030208B142F004029008013AB2
:1052A80018770D2A3FF6D3AD01A050F822F000BFC1
:1052B800EB340000E33400000B350000E334000059
:1052C800DF2F000003350000EB340000EB34000052
:1052D80003350000DF2F0000E33400000B35000029
:1052E800E3340000EB340000DFED377A9FED377AC6
:1052F80079EE277A9FED365ADFED365A67EE877AD0
:105308009FED2D6B87EE857A37EE257AB7EEC77A53
:1053180027EE067BB7EEC77BFDEEC77A17EE901A2D
:1053280017E71A6A013A1A626CE51A6A01321A62B8
:1053380068E51A6A013A1A6217E51A6A01321A62AE
:1053480013E5136A013B136236E5136A01331362EE
:1053580032E5186A013818627AE5186A013018626D
:1053680076E5136A023B136226E5136A0233136279
:1053780022E5186A023818626AE5186A023018626B
:1053880066E51A6A023A1A623CE51A6A02321A6239
:1053980038E51A6A023A1A62E7E41A6A02321A62AD
:1053A800E3E40146142220460BB0BDEC048BBDE8B3
:1053B800F0401847AFF30080F8C1631ADCA54C40F1
:1053C800703100203C2A0020E17AD43EDB0F49C02E
:1053D800E17A543FDB0F4940F0B585B0634D644E28
:1053E8006846FFF7A9F90199029A6846039BA960E4
:1053F800EA602B61FFF7F0F900235E4AAB62EB62CB
:105408002B63039B01992B62A9610299D2E902746B
:10541800E96123681B68B34249D1632F41DC04F278
:1054280023215248FDF7FEFBC0F307235FFA87FEEE
:1054380047F307270344A4F81E0284F82272DB43CB
:1054480084F821E284F820324FF6FF63A4F81C3276
:10545800431C3ADB04F2222204F221234FF0000C11
:10546800024401E013F801EF9342F444FAD16FEAE1
:105478000C0C5FFA8CFC231800F1080183F823C296
:1054880040F20123994223D0656804F507703A4A2F
:105498002B685B68934211D105B0BDE8F04004F079
:1054A800B1B994F8F834002BB9D105B0F0BD2A464B
:1054B8003946204605B0BDE8F04018470A4601467F
:1054C800284605B0BDE8F04018474FF0FF0CD2E77A
:1054D80003232A4A2A4D8DF80430009223681B685A
:1054E8000295B34237D104F50A7605F1300C2F4600
:1054F800103610350FCF674546F8100C46F80C1CCF
:1055080046F8082C46F8043CF1D13823DFF878C077
:105518001C4F04F2212203CD306004F25F20716039
:105528000721C4F824320023C4E987C701E012F830
:10553800011F90420B44FAD1DB4365680E4A04F51B
:10554800077084F860322B685B68934208D1452164
:1055580004F058F9A9E76A46072120469847A4E7C6
:1055680001464522284698479FE700BFB8300020EB
:105578005D270000EC30002055050000440700209E
:1055880084050020C2070003FFFE3D00C24B2DE941
:10559800F04393F824208FB0012A40F2418172B67B
:1055A8001A6A62B6BD4C0026BD4901A805F0B8F8D4
:1055B80001A808F0BDFE01A98046024684F824022D
:1055C80004F50A7084F825620727A4F8266204F215
:1055D800212502F0D1FD4FF6FF6308F10B02AC461E
:1055E800A4F81C3208F1050384F81F62DBB284F8C2
:1055F800217284F81E32DB4384F820324FF4807322
:10560800A4F82232052301E01CF8017F01333E444F
:105618009342F9DDF64304EB0803606808F10D01D5
:1056280083F8286203689F4E5B68B34240F0588253
:105638009D4F384604F0E6F89C4B93F82420012A45
:1056480040F2428172B61A6A62B6994901A805F019
:1056580067F84FF0000901A808F06AFE8046024684
:1056680001A984F8240284F825929248A4F8269285
:1056780002F082FD08F105034FF0070ECC46DBB2BD
:1056880008F10B012A4684F81F9284F81E32DB4386
:1056980084F821E284F820324FF6FF63A4F81C3224
:1056A8004FF48073A4F82232052301E012F801EFC9
:1056B8000133F4448B42F9DD04EB08036FEA0C0C68
:1056C800606808F10D0183F828C203685B68B3427B
:1056D80040F00B82384604F095F8774B93F8242075
:1056E800012A40F2C58072B61A6A62B6734901A8E7
:1056F80005F016F84FF0000901A808F019FE8046D9
:10570800024601A984F8240284F825926948A4F87D
:10571800269202F031FD08F105034FF0070ECC4642
:10572800DBB208F10B012A4684F81F9284F81E3276
:10573800DB4384F821E284F820324FF6FF63A4F8B3
:105748001C324FF48073A4F82232052301E012F8CA
:1057580001EF0133F4448B42F9DD04EB08036FEAEF
:105768000C0C606808F10D0183F828C203685B68B7
:10577800B34240F0AB81384604F044F8504B93F8FC
:105788002420012A60D972B61A6A62B64D4901A866
:1057980004F0C6FF4FF0000901A808F0C9FD8046D3
:1057A800024684F8240201A9424884F82592A4F804
:1057B800269202F0E1FC08F105034FF0070ECC46F3
:1057C800DBB208F10B0284F81F9284F81E32DB4327
:1057D80084F821E284F820324FF6FF63A4F81C32E3
:1057E8004FF48073A4F82232052301E015F801EF85
:1057F8000133F4449A42F9DA04EB08036FEA0C0C1B
:10580800606808F10D0183F828C203685B68B34239
:1058180040F06081384603F0F5FF0FB0BDE8F08333
:1058280072B6D3E90310D3E905420968006821403C
:10583800104200F0DF801A7F02F0030209B142F043
:10584800040242F00802DBE072B6DA6811681A69ED
:1058580010685A6911409A69104200F09F801A7FB7
:1058680002F0030209B142F0040242F008029BE090
:1058780072B6DA6811681A6910685A6911409A692B
:1058880010425FD01A7F02F0030209B142F004020D
:1058980042F008025CE000BF6C2A0020482B002080
:1058A800DC03002055050000642D0020A82A0020F4
:1058B800F8030020702D0020E42A002014040020A2
:1058C800202B00203004002072B6DA6811681A69AB
:1058D80010685A6911409A69104208D01A7F02F07C
:1058E800030209B142F0040242F0080205E01A7FFF
:1058F80002F0030209B142F004029108013A197753
:105908000D2A3FF6A0AE01A151F822F0153C000087
:105918000D3C0000353C00000D3C0000D73700006E
:105928002D3C0000153C0000153C00002D3C0000FB
:10593800D73700000D3C0000353C00000D3C00004E
:10594800153C00001A7F02F0030209B142F004027C
:105958009108013A19770D2A3FF6C6AE01A151F810
:1059680022F000BF053C0000FD3B0000253C000084
:10597800FD3B0000793800001D3C0000053C00009C
:10598800053C00001D3C000079380000FD3B00008C
:10599800253C0000FD3B0000053C00001A7F02F09A
:1059A800030209B142F004029108013A19770D2A5D
:1059B8003FF6EAAE01A151F822F000BFF53B000026
:1059C800ED3B0000553C0000ED3B0000193900009C
:1059D8004D3C0000F53B0000F53B00004D3C00004D
:1059E80019390000ED3B0000553C0000ED3B00007C
:1059F800F53B00001A7F02F0030209B142F00402ED
:105A08009108013A19770D2A3FF6CAAD01A151F85C
:105A180022F000BFE53B0000DD3B0000453C0000F4
:105A2800DD3B0000313700003D3C0000E53B000055
:105A3800E53B00003D3C000031370000DD3B000045
:105A4800453C0000DD3B0000E53B00001A6A013AD6
:105A58001A62A6E51A6A01321A62A2E51A6A013ABE
:105A68001A6292E61A6A01321A628EE61A6A013AD4
:105A78001A623AE61A6A01321A6236E61A6A013A74
:105A88001A62E1E51A6A01321A62DDE51A6A023A17
:105A98001A622AE61A6A02321A6226E61A6A023A72
:105AA8001A62D1E51A6A02321A62CDE51A6A023A16
:105AB8001A6276E51A6A02321A6272E51A6A023ABC
:105AC8001A6262E61A6A02321A625EE60A463946C3
:105AD800984753E60A46394698470FB0BDE8F08321
:105AE800044F0A4639469847A6E50A463946984774
:105AF800F3E500BF642D002030B5002385B01E49B2
:105B080004461E4A0393CDE9011301680D689542C6
:105B180028D11B4840F6F72104F22122C4F8243288
:105B2800A4F8283284F82A32C4E9870104F22A202A
:105B38000A2101E012F8011F82420B44FAD1DB432B
:105B48006568104A04F5077084F82B322B685B6887
:105B580093420BD1102103F055FE0B4B1B68E360F9
:105B680005B030BD01AA0A21A847F6E70146102270
:105B780028469847F1E700BFB80700205D270000D6
:105B8800FFFE0800550500007C3100202DE9F04F8C
:105B9800AA4B8BB0AA490022044600F5836600F29E
:105BA8007C45A84FDFF8A892DFF8A88206930491F5
:105BB8000793CDE9083256F8043F002B64D01A68E1
:105BC800D3E901010368ADF8141006929B68984761
:105BD8003368079058680368DB68984723684FF470
:105BE800007132681B68D2F810A0BB420890099176
:105BF80040F0C680BAF1630F03DD94F8F834002B47
:105C080042D004F2232104A8FCF790FB4FF6FF636F
:105C18005FFA8AFC421CA4F81C32C0F307234AF33B
:105C2800072A84F821C20344A4F81E0284F822A299
:105C38006FEA030384F82032C0F2B38004F2222111
:105C480004F221230022014401E013F801CF8B4222
:105C58006244FAD1D243D3B200F1080140F20122E2
:105C680004EB000C91428CF8233200F09C80D4F8AD
:105C780004C004F50770744ADCF800305B6893428E
:105C880040F0838003F0BEFDB54294D104F59C66D4
:105C98006C4FDFF8BC91DFF8BC8155F8040F002881
:105CA80061D00368D0E901129B68ADF81410069220
:105CB80098472B6807901A681846D36898472B6846
:105CC80008904FF400711A68184623680991D3F8B0
:105CD80000B053689847BB4582464CD1632803DD22
:105CE80094F8F834002B3ED004F2232104A8FCF7E2
:105CF8001DFB4FF6FF635FFA8AFC4AF3072AA4F8F4
:105D08001C32C0F30723014684F821C20344A4F8D7
:105D18001E0284F822A2DB4384F82032431C3EDBB7
:105D280004F2222004F221230022084401E013F89F
:105D380001CF98426244FAD1D243D3B2601840F2FC
:105D48000122083180F82332914200F08780D4F88C
:105D580004C004F507703C4ADCF800305B689342E5
:105D680018D103F04FFDB54297D1012384F8F834D8
:105D78000BB0BDE8F08F014604AA2046D847F2E7E9
:105D880004AA5146204698477EE70A4601466046DF
:105D9800984779E70A46014660469847E3E7FF23B4
:105DA800CCE7FF2358E70323CDF804908DF808309B
:105DB8002368D3F800A0254BBA45039340F0978099
:105DC8009C4604F50A7E03F1300BE2460EF1100EF4
:105DD8000CF1100CBAE80F00DA454EF8100C4EF82A
:105DE8000C1C4EF8082C4EF8043CEED13823DFF892
:105DF80068A004F22122BCE80300CEF8000004F2F7
:105E08005F20CEF804100721C4F81C82C4E988A3D7
:105E1800002301E012F8011F82420B44FAD1DB4350
:105E28006268094804F5077184F8603213685B6892
:105E3800834266D10846452124E700BF2C0800208C
:105E48005C0700205D270000550500008405002040
:105E580044070020FFFE3D00C20700030323CDF8DE
:105E680004908DF808302368D3F800A0294BBA4570
:105E7800039341D19C4604F50A7E03F1300BE246B8
:105E88000EF1100E0CF1100CBAE80F00DA454EF8BE
:105E9800100C4EF80C1C4EF8082C4EF8043CEED1B1
:105EA8003823DFF878A004F22122BCE80300CEF8FA
:105EB800000004F25F20CEF804100721C4F81C8209
:105EC800C4E988A3002301E012F8011F82420B44B1
:105ED800FAD1DB436268104804F5077184F8603230
:105EE80013685B68834210D10846452139E701AA47
:105EF80007212046D047C7E601AA07212046D047F8
:105F080031E7104645229847BEE610464522984795
:105F180029E700BF8405002055050000C2070003DB
:105F28002DE9F047B94F42F6F822D0F8003584B091
:105F38003E680446F31A934202D9002380F8F834E5
:105F4800D4F8E43423B1D4F80435B342C0F00C815A
:105F5800AF4DDFF8D882DFF8D892A36923B13A6849
:105F6800921B9342C0F00481606803685B69AB428E
:105F780040F0DB8003F020FC0028C0F2DA80D4F87F
:105F8800F434D4F8E4240344072AC4F8F43400F0C1
:105F9800BC80082AE1D801A151F822F0794200001A
:105FA800FF410000E9410000D5410000C341000065
:105FB800B341000091410000EB4000005141000056
:105FC800944A00211A40C4F8E414FF2AC5D1D4F831
:105FD800EC34002B00F062810A2B00F0CE80062BF7
:105FE80000F043810B2B00F0F180BC3354F8230000
:105FF8000028B2D0036804F11C011B689847ACE77D
:10600800D4F8EC34072203EB0023C4F8E424D4F8D2
:10601800E824C4F8EC34002A9FD10823C4F8E434F7
:106028009BE70623C4F8EC04C4F8F404C4F8E43489
:1060380093E7784A1A40FF2A0CBF05230023C4F8C7
:10604800E4348AE7D4F8E834042203EB0023C4F8E4
:10605800E424C4F8E83480E700220323C4F8E80401
:10606800C4F8F404C4F8F024C4F8E43475E7FE284E
:1060780076D00023C4F8E43494F8F834002B7FF485
:106088006CAF2268D2F800A0634A0192634A924535
:10609800CDE9023340F0F380614940F6F72204F27B
:1060A8002A20C4F82432A4F8283284F82A32C4E911
:1060B800871204F221220A2101E012F8011F82420C
:1060C8000B44FAD1DB436268564904F5077084F83B
:1060D8002B3213685B688B4240F0D680102103F0A6
:1060E80091FB3B68E36038E7FF2831D03B6841F219
:1060F80088329B1B93427FF630AF00236FF001007C
:1061080084F8F83404B0BDE8F087D4F8F0345A1CA9
:106118002344C4F8F0241877D4F8E834013BC4F8D1
:10612800E834002B7FF419AF77E798470028BFF6CB
:1061380026AF94F8F8040028E4D0D4F8FC3440F6EC
:10614800C412F31A934244D8002004B0BDE8F08783
:106158000123C4F8E43406F11403C4F80435FCE65A
:106168000223C4F8E434F8E60023C4F8E434EFE684
:106178006FF0010004B0BDE8F087E2684FF47A7C64
:1061880039683B68891AA8FB0320E269A2EB9012E0
:106198008009013A0CFB1033A8FB01E002EB9012D6
:1061A80080092261204A0CFB1011206A02FB13931C
:1061B800034404F1100002FB0133214641F8143F67
:1061C80000F0C6FB3B68C4F80035C6E684F8F8144E
:1061D800C3E62268002310491568104A01919542C8
:1061E800CDE9023355D10E4A04F22A200A21C4F817
:1061F8002432C4F81C2240F6F722A4F82832C4F846
:10620800202204F2212284F82A3215E07C31002071
:106218003D030000FF000080B80700205D27000054
:10622800FFFE08005505000040420F00D34D6210E4
:1062380000CA9A3B12F8011F82420B44FAD1DB4391
:1062480062681F4904F5077084F82B3213685B688D
:106258008B4230D1102103F0D5FA3B680020C4F8F6
:10626800FC64E36004B0BDE8F08704F11C0104F2AB
:106278000C50FCF7DBF8012384F808356DE601AA19
:106288000A212046D0472CE701461046102298479D
:1062980027E701AA0A212046A847DEE72046FFF79C
:1062A8002BFC2046FFF772FC4FF0FF30C4F8FC646B
:1062B800C4F8006526E70146104610229847CCE747
:1062C800550500002DE9F84314216048604D01F0A0
:1062D800E5F95A215D4801F0E7F95E4C2E6840F275
:1062E800EE285D4FDFF8A09103F00AFB2378002B1E
:1062F80000F096803B78DB0740F192802B68D9F854
:1063080000209B1A0E2B40F28B80544C00234FF434
:10631800614004F27C42C4F8E434C4F8E83411461D
:10632800C4F8F034C4F8EC34A06002E00133192B4F
:106338000AD051F8040F0028F8D1494903F59070A4
:10634800643344F820104B60002302E00133192B1A
:106358000AD052F8041F0029F8D1424A03F5907177
:10636800643344F8212053603F4A0023114602E079
:106378000133192B0BD051F8040F0028F8D13B49F1
:1063880004EB83007D33C0F81C14C1E902340023F8
:1063980002E00133192B0BD052F8041F0029F8D161
:1063A800334A04EB83017D33C1F81C24C2E902346B
:1063B80094F8F8343BB9294D2846FFF7B1FD94F815
:1063C800F834002BF8D02B4A07272B4B0025DFF891
:1063D800BCC02A4EC4E987231223C4F82432BCE87F
:1063E8000F000FC6DCF80020334623F81729721C6B
:1063F80001E013F8017F93423D44FAD1ED43606810
:106408001F4A84F83A5203685B68934216D11F21E9
:106418001C4803F0F7F90120BDE8F84301F06ABD14
:106428002B6822789B1B32B1B3F5FA6F3FF66DAF3C
:1064380003F066FA58E74345FAD966E71F2211497F
:1064480098470120BDE8F84301F054BD70310020A1
:106458007C310020AA310020A9310020482B0020DF
:1064680094300020D0290020602F00201031002017
:10647800EC300020FFFE1700E8070001702D002017
:1064880055050000642D00208C310020A40E00204A
:106498002DE9F0475F4C604D23682A689B1A312B21
:1064A8006AD85E4A236812689B1AB3F5C87F06D378
:1064B80000235B485B495C4A03600B6013605B4DDB
:1064C80023682A689B1A312B06D9594F3E7876B132
:1064D800FEF782FF23682B60564D23682A689B1AB3
:1064E800C72B4ED85448FFF71BFDBDE8F08753482B
:1064F8000AF036FA524800F0DBFC514800F0FCFC88
:10650800002847D100234C4E4E484FF0070E3B70F1
:106518009A464D4B06F50A78DFF8489106F2212C89
:1065280006F25B27C6E987033423C6F82432B9E8A4
:106538000F00A8E80F00B9E80F00A8E80F00B9E8B5
:106548000F00A8E80F00D9F80030C8F8003001E0C3
:106558001CF801EF6745F244FAD16FEA0A03706844
:106568003A4A86F85C3203685B6893424AD1412113
:10657800374803F047F9ADE7FEF7DEFB23682B60E9
:106588008FE7FFF703F823682B482B60FFF7C8FC59
:10659800BDE8F0872F4800F08BFC2E4800F0ACFCDB
:1065A8000028AFD001232C4AB446234E2B493B7018
:1065B80006F50A792A4B06F2212EC6F81C220F226C
:1065C80006F236280727C6E988120FCBA9E8070084
:1065D80029F8023B1B0C89F8003001E01EF8017F06
:1065E800C645BC44FAD16FEA0C0C7068174A86F8A5
:1065F80037C203685B68934208D11C21144803F032
:1066080001F967E741221249984763E71C221049BC
:1066180098475FE77C310020A82600201C2A00202C
:10662800242A0020282A0020202A0020A026002032
:10663800A0310020A4260020482B0020F8130020B9
:10664800C0290020FFFE3900C607000455050000D8
:10665800642D00202C2A0020FFFE1400EB07000107
:10666800680D0020300D0020F0B58A48012700246D
:10667800894D4FF400762DED068B83B09FED87AAE8
:1066880000F012FC864800F00FFC009740F27E33C1
:10669800162217218348FEF7E3FA40F27E330C22D4
:1066A8000D2100948048FEF7DBFA009740F27E3314
:1066B800102211217D48FEF7D3FA40F27E330E22D4
:1066C8000F2100947A48FEF7CBFA7A4800F072FF5F
:1066D80002213B46224600912146774801F04AF8BC
:1066E80005210423032200912146744801F042F851
:1066F80008210723062200912146714801F03AF843
:106708000B21DFED709A0A239FED6F9A0922DFEDC6
:106718006F8A9FED6F8A009121466E4801F02AF832
:10672800B0EE4A2AF0EE691A6B48B0EE491AF0EE5C
:10673800680AB0EE480A01F0B9F8B0EE4A2AF0EE5D
:10674800691A6648B0EE491AF0EE680AB0EE480ACF
:1067580001F0ACF8B0EE4A2AF0EE691A6048B0EEE3
:10676800491AF0EE680AB0EE480A01F09FF8B0EE58
:106778004A2AF0EE691A5B48B0EE491AF0EE680A48
:10678800B0EE480A01F092F89FED571ADFED570A6C
:10679800FA229FED570A0421564800F025FD564B72
:1067A800214685F8F8442B606422544B05F21C40BE
:1067B800C5F828456B604FF46143C5F83045AB60B8
:1067C8004F4BC5F80C3506F0C1F82146642205F593
:1067D800906006F0BBF83246214605F11C0006F031
:1067E800B5F83246214605F5077006F0AFF8454979
:1067F800454BDFF850E1454E0B600023C1F830E00F
:10680800434ADFF844E143484B618B61CB610E6238
:106818004B628B62CB624F63C1F808E0C5F8104544
:10682800C5F81845C5F81C45C5F82445AC613A4D6E
:10683800DFF818C107620361384F43618361C1E91A
:1068480003263749374A016037495660C1603749DE
:106858009360C1613649D3608160364913615661DE
:1068680011609361D36113629362D36213636B60A7
:10687800AB60EB60304B56627A60304A3C61CCF8D2
:1068880010403A60CCE900352D4B2B6003B0BDECCD
:10689800068BF0BDC0290020482B0020CDCCCC3D74
:1068A8002C2A00206C2A0020A82A0020E42A002094
:1068B800202B002070310020582A0020942A002024
:1068C800D02A0020CDCCCC3C6666A63E00007F4393
:1068D800008080C30C2B0020E8240020182500200D
:1068E8004825002078250020AAF1823E04564E3E15
:1068F8005305A33D3C2A0020A4070020E8130020EC
:106908002C070020D029002074070020140700203D
:10691800FC0600209430002000310020EC300020DC
:106928008C070020B8300020000800205D0500001A
:10693800C8030020E8070020D4030020CC0300206F
:10694800D0070020CD020000C00300201031002035
:106958000B6830B45A0A074C0568A4FB0242D409F4
:1069680005EBD2120260044A02FB143330BC0B6000
:10697800704700BF834B040000CA9A3B0020704751
:1069880090F8A32090F8A200101A704790F8A2304F
:1069980090F8A3209A4205D95A1C034480F8A220F3
:1069A800987E70474FF0FF30704700BF90F8A230D4
:1069B80090F8A3209A4202D91844807E70474FF07D
:1069C800FF307047704700BF0346B0F8300178B118
:1069D80093F82F21882A03D9012200205A60704792
:1069E80002F1010C01201A4483F82FC182F8A51086
:1069F800704700BF38B5B0F830410CB9204638BDF3
:106A080090F82F310546C3F18904A2420DD81446E7
:106A180005F1A5002246184401F0AEFB95F82F3188
:106A28002046234485F82F3138BD01224260EFE724
:106A38002DE9F04FD0F814A01524017E8146437E3D
:106A480083B00AEB0111384A0AEB0313374F097A6E
:106A580093F8283002EB01150901E86852F8018023
:106A680002EB0311D5F804B01B01CE68D558CBF85A
:106A78000040C8F88400D8F804304A6803432C4919
:106A88000192C8F804301460C5F884606B68334319
:106A98006B60284B4C683A68A3FB0232920C02EBFD
:106AA800820252004B681B1B9A42FBD84FF0090C1C
:106AB8001F4ADFF880E0D8F80830034202D0AB68FC
:106AC80033422FD1C5F8886054683968AEFB01316C
:106AD800890C01EB810153681B1B9942FBD8C5F84F
:106AE800846054683968AEFB0131890C01EB81017F
:106AF80053681B1B9942FBD8BCF1010CDBD16046E3
:106B080099F81830019A0AEB0313DB68CBF80030C8
:106B180099F819300AEB031ADAF82C30136003B02D
:106B2800BDE8F08F0120EBE7A40A0020E413002061
:106B3800001000E083DE1B430E4A10B5116804699B
:106B480005E0DB0107D413685B1A102B08D86369CA
:106B580013F0007FF5D14FF4FE430120636110BDAF
:106B6800FFF766FF0028FAD04FF4FE430120636167
:106B7800F5E700BF7C3100202DE9F04790F82FA100
:106B88000569BAF1000F4FD081468846FFF7D4FF58
:106B9800002849D0374E0024376818E06B6919057A
:106BA80051D4DA0455D4580559D4990441D43268DB
:106BB800D21B322A3DD8544507D9EA6D520704D171
:106BC8009B0555D4B8F1000F52D002F099FE5445F8
:106BD800E4D8EA6D500702F00703DFD413E099F810
:106BE800A5200133022442F48062042B2A661ED0B9
:106BF8008A4503F1010309EB01020ED992F8A52099
:106C0800042B2A66CAD00121002CE8D02146013382
:106C180001348A4509EB0102F0D8B8F1000FBDD064
:106C28004FF400732B66B9E70420BDE8F087012410
:106C3800B4E72B694FF40072042043F440732B61CE
